{"abi":[{"type":"constructor","inputs":[{"name":"initialOwner","type":"address","internalType":"address"}],"stateMutability":"nonpayable"},{"type":"function","name":"addBanditFort","inputs":[{"name":"newBanditFort","type":"address","internalType":"address"}],"outputs":[{"name":"","type":"address","internalType":"address"}],"stateMutability":"nonpayable"},{"type":"function","name":"addGemCastle","inputs":[{"name":"newCastle","type":"address","internalType":"address"}],"outputs":[{"name":"","type":"address","internalType":"address"}],"stateMutability":"nonpayable"},{"type":"function","name":"addTreasuryCastle","inputs":[{"name":"newCastle","type":"address","internalType":"address"}],"outputs":[{"name":"","type":"address","internalType":"address"}],"stateMutability":"nonpayable"},{"type":"function","name":"getAllBanditForts","inputs":[],"outputs":[{"name":"","type":"address[]","internalType":"address[]"}],"stateMutability":"view"},{"type":"function","name":"getAllGemCastles","inputs":[],"outputs":[{"name":"","type":"address[]","internalType":"address[]"}],"stateMutability":"view"},{"type":"function","name":"getAllTreasuryCastles","inputs":[],"outputs":[{"name":"","type":"address[]","internalType":"address[]"}],"stateMutability":"view"},{"type":"function","name":"owner","inputs":[],"outputs":[{"name":"","type":"address","internalType":"address"}],"stateMutability":"view"},{"type":"function","name":"purgeAllBanditForts","inputs":[],"outputs":[],"stateMutability":"nonpayable"},{"type":"function","name":"purgeAllGemCastles","inputs":[],"outputs":[],"stateMutability":"nonpayable"},{"type":"function","name":"purgeAllTreasuryCastles","inputs":[],"outputs":[],"stateMutability":"nonpayable"},{"type":"function","name":"removeBanditFort","inputs":[{"name":"banditFort","type":"address","internalType":"address"}],"outputs":[],"stateMutability":"nonpayable"},{"type":"function","name":"removeGemCastle","inputs":[{"name":"castle","type":"address","internalType":"address"}],"outputs":[],"stateMutability":"nonpayable"},{"type":"function","name":"removeTreasuryCastle","inputs":[{"name":"castle","type":"address","internalType":"address"}],"outputs":[],"stateMutability":"nonpayable"},{"type":"function","name":"renounceOwnership","inputs":[],"outputs":[],"stateMutability":"nonpayable"},{"type":"function","name":"transferOwnership","inputs":[{"name":"newOwner","type":"address","internalType":"address"}],"outputs":[],"stateMutability":"nonpayable"},{"type":"event","name":"OwnershipTransferred","inputs":[{"name":"previousOwner","type":"address","indexed":true,"internalType":"address"},{"name":"newOwner","type":"address","indexed":true,"internalType":"address"}],"anonymous":false},{"type":"error","name":"CallerIsNotOwner","inputs":[]},{"type":"error","name":"OwnableInvalidOwner","inputs":[{"name":"owner","type":"address","internalType":"address"}]},{"type":"error","name":"OwnableUnauthorizedAccount","inputs":[{"name":"account","type":"address","internalType":"address"}]}],"bytecode":{"object":"0x608060405234801561000f575f80fd5b50604051610a3e380380610a3e83398101604081905261002e916100bb565b806001600160a01b03811661005c57604051631e4fbdf760e01b81525f600482015260240160405180910390fd5b6100658161006c565b50506100e8565b5f80546001600160a01b038381166001600160a01b0319831681178455604051919092169283917f8be0079c531659141344cd1fd0a4f28419497f9722a3daafe3b4186f6b6457e09190a35050565b5f602082840312156100cb575f80fd5b81516001600160a01b03811681146100e1575f80fd5b9392505050565b610949806100f55f395ff3fe608060405234801561000f575f80fd5b50600436106100f0575f3560e01c80638deee15711610093578063b67ba53a11610063578063b67ba53a146101b0578063e655ab1a146101b8578063f2fde38b146101cb578063fa673aed146101de575f80fd5b80638deee1571461016f5780638f2778e314610182578063b1041b0114610195578063b32a93021461019d575f80fd5b8063715018a6116100ce578063715018a6146101475780637f77d7891461014f5780638b42488c146101575780638da5cb5b1461015f575f80fd5b80630d1ad970146100f4578063533afd2d146100fe5780635862c8941461011c575b5f80fd5b6100fc6101f1565b005b610106610218565b6040516101139190610876565b60405180910390f35b61012f61012a3660046108c2565b610278565b6040516001600160a01b039091168152602001610113565b6100fc6102cf565b6100fc6102e2565b6100fc610306565b5f546001600160a01b031661012f565b61012f61017d3660046108c2565b61032a565b6100fc6101903660046108c2565b610380565b610106610481565b61012f6101ab3660046108c2565b6104df565b610106610536565b6100fc6101c63660046108c2565b610594565b6100fc6101d93660046108c2565b61066d565b6100fc6101ec3660046108c2565b6106ac565b6101f9610784565b604080515f8152602081019182905251610215916002916107ff565b50565b6060600280548060200260200160405190810160405280929190818152602001828054801561026e57602002820191905f5260205f20905b81546001600160a01b03168152600190910190602001808311610250575b5050505050905090565b5f610281610784565b50600280546001810182555f919091527f405787fa12a823e0f2b7631cc41b3ba8828b3321ca811111fa75cd3aa3bb5ace0180546001600160a01b0319166001600160a01b03831617905590565b6102d7610784565b6102e05f6107b0565b565b6102ea610784565b604080515f8152602081019182905251610215916001916107ff565b61030e610784565b604080515f8152602081019182905251610215916003916107ff565b5f610333610784565b506001805480820182555f919091527fb10e2d527612073b26eecdfd717e6a320cf44b4afac2b0732d9fcbe2b7fa0cf60180546001600160a01b0319166001600160a01b03831617905590565b610388610784565b5f5b60025481101561047d57816001600160a01b0316600282815481106103b1576103b16108ef565b5f918252602090912001546001600160a01b03160361047557600280546103da90600190610903565b815481106103ea576103ea6108ef565b5f91825260209091200154600280546001600160a01b039092169183908110610415576104156108ef565b905f5260205f20015f6101000a8154816001600160a01b0302191690836001600160a01b03160217905550600280548061045157610451610928565b5f8281526020902081015f1990810180546001600160a01b03191690550190555050565b60010161038a565b5050565b6060600180548060200260200160405190810160405280929190818152602001828054801561026e57602002820191905f5260205f209081546001600160a01b03168152600190910190602001808311610250575050505050905090565b5f6104e8610784565b50600380546001810182555f919091527fc2575a0e9e593c00f959f8c92f12db2869c3395a3b0502d05e2516446f71f85b0180546001600160a01b0319166001600160a01b03831617905590565b6060600380548060200260200160405190810160405280929190818152602001828054801561026e57602002820191905f5260205f209081546001600160a01b03168152600190910190602001808311610250575050505050905090565b61059c610784565b5f5b60035481101561047d57816001600160a01b0316600382815481106105c5576105c56108ef565b5f918252602090912001546001600160a01b03160361066557600380546105ee90600190610903565b815481106105fe576105fe6108ef565b5f91825260209091200154600380546001600160a01b039092169183908110610629576106296108ef565b905f5260205f20015f6101000a8154816001600160a01b0302191690836001600160a01b03160217905550600380548061045157610451610928565b60010161059e565b610675610784565b6001600160a01b0381166106a357604051631e4fbdf760e01b81525f60048201526024015b60405180910390fd5b610215816107b0565b6106b4610784565b5f5b60015481101561047d57816001600160a01b0316600182815481106106dd576106dd6108ef565b5f918252602090912001546001600160a01b03160361077c5760018054610705908290610903565b81548110610715576107156108ef565b5f91825260209091200154600180546001600160a01b039092169183908110610740576107406108ef565b905f5260205f20015f6101000a8154816001600160a01b0302191690836001600160a01b03160217905550600180548061045157610451610928565b6001016106b6565b5f546001600160a01b031633146102e05760405163118cdaa760e01b815233600482015260240161069a565b5f80546001600160a01b038381166001600160a01b0319831681178455604051919092169283917f8be0079c531659141344cd1fd0a4f28419497f9722a3daafe3b4186f6b6457e09190a35050565b828054828255905f5260205f20908101928215610852579160200282015b8281111561085257825182546001600160a01b0319166001600160a01b0390911617825560209092019160019091019061081d565b5061085e929150610862565b5090565b5b8082111561085e575f8155600101610863565b602080825282518282018190525f9190848201906040850190845b818110156108b65783516001600160a01b031683529284019291840191600101610891565b50909695505050505050565b5f602082840312156108d2575f80fd5b81356001600160a01b03811681146108e8575f80fd5b9392505050565b634e487b7160e01b5f52603260045260245ffd5b8181038181111561092257634e487b7160e01b5f52601160045260245ffd5b92915050565b634e487b7160e01b5f52603160045260245ffdfea164736f6c6343000819000a","linkReferences":{}},"methodIdentifiers":{"addBanditFort(address)":"b32a9302","addGemCastle(address)":"5862c894","addTreasuryCastle(address)":"8deee157","getAllBanditForts()":"b67ba53a","getAllGemCastles()":"533afd2d","getAllTreasuryCastles()":"b1041b01","owner()":"8da5cb5b","purgeAllBanditForts()":"8b42488c","purgeAllGemCastles()":"0d1ad970","purgeAllTreasuryCastles()":"7f77d789","removeBanditFort(address)":"e655ab1a","removeGemCastle(address)":"8f2778e3","removeTreasuryCastle(address)":"fa673aed","renounceOwnership()":"715018a6","transferOwnership(address)":"f2fde38b"},"id":49}