{"abi":[{"type":"constructor","inputs":[{"name":"initialOwner","type":"address","internalType":"address"}],"stateMutability":"nonpayable"},{"type":"function","name":"approve","inputs":[{"name":"to","type":"address","internalType":"address"},{"name":"tokenId","type":"uint256","internalType":"uint256"}],"outputs":[],"stateMutability":"nonpayable"},{"type":"function","name":"balanceOf","inputs":[{"name":"owner","type":"address","internalType":"address"}],"outputs":[{"name":"","type":"uint256","internalType":"uint256"}],"stateMutability":"view"},{"type":"function","name":"getApproved","inputs":[{"name":"tokenId","type":"uint256","internalType":"uint256"}],"outputs":[{"name":"","type":"address","internalType":"address"}],"stateMutability":"view"},{"type":"function","name":"getCounter","inputs":[],"outputs":[{"name":"","type":"uint256","internalType":"uint256"}],"stateMutability":"view"},{"type":"function","name":"isApprovedForAll","inputs":[{"name":"owner","type":"address","internalType":"address"},{"name":"operator","type":"address","internalType":"address"}],"outputs":[{"name":"","type":"bool","internalType":"bool"}],"stateMutability":"view"},{"type":"function","name":"mint","inputs":[],"outputs":[],"stateMutability":"nonpayable"},{"type":"function","name":"name","inputs":[],"outputs":[{"name":"","type":"string","internalType":"string"}],"stateMutability":"view"},{"type":"function","name":"owner","inputs":[],"outputs":[{"name":"","type":"address","internalType":"address"}],"stateMutability":"view"},{"type":"function","name":"ownerOf","inputs":[{"name":"tokenId","type":"uint256","internalType":"uint256"}],"outputs":[{"name":"","type":"address","internalType":"address"}],"stateMutability":"view"},{"type":"function","name":"renounceOwnership","inputs":[],"outputs":[],"stateMutability":"nonpayable"},{"type":"function","name":"safeTransferFrom","inputs":[{"name":"from","type":"address","internalType":"address"},{"name":"to","type":"address","internalType":"address"},{"name":"tokenId","type":"uint256","internalType":"uint256"}],"outputs":[],"stateMutability":"nonpayable"},{"type":"function","name":"safeTransferFrom","inputs":[{"name":"from","type":"address","internalType":"address"},{"name":"to","type":"address","internalType":"address"},{"name":"tokenId","type":"uint256","internalType":"uint256"},{"name":"data","type":"bytes","internalType":"bytes"}],"outputs":[],"stateMutability":"nonpayable"},{"type":"function","name":"setApprovalForAll","inputs":[{"name":"operator","type":"address","internalType":"address"},{"name":"approved","type":"bool","internalType":"bool"}],"outputs":[],"stateMutability":"nonpayable"},{"type":"function","name":"supportsInterface","inputs":[{"name":"interfaceId","type":"bytes4","internalType":"bytes4"}],"outputs":[{"name":"","type":"bool","internalType":"bool"}],"stateMutability":"view"},{"type":"function","name":"symbol","inputs":[],"outputs":[{"name":"","type":"string","internalType":"string"}],"stateMutability":"view"},{"type":"function","name":"tokenByIndex","inputs":[{"name":"index","type":"uint256","internalType":"uint256"}],"outputs":[{"name":"","type":"uint256","internalType":"uint256"}],"stateMutability":"view"},{"type":"function","name":"tokenOfOwnerByIndex","inputs":[{"name":"owner","type":"address","internalType":"address"},{"name":"index","type":"uint256","internalType":"uint256"}],"outputs":[{"name":"","type":"uint256","internalType":"uint256"}],"stateMutability":"view"},{"type":"function","name":"tokenURI","inputs":[{"name":"_tokenId","type":"uint256","internalType":"uint256"}],"outputs":[{"name":"","type":"string","internalType":"string"}],"stateMutability":"view"},{"type":"function","name":"totalSupply","inputs":[],"outputs":[{"name":"","type":"uint256","internalType":"uint256"}],"stateMutability":"view"},{"type":"function","name":"transferFrom","inputs":[{"name":"from","type":"address","internalType":"address"},{"name":"to","type":"address","internalType":"address"},{"name":"tokenId","type":"uint256","internalType":"uint256"}],"outputs":[],"stateMutability":"nonpayable"},{"type":"function","name":"transferOwnership","inputs":[{"name":"newOwner","type":"address","internalType":"address"}],"outputs":[],"stateMutability":"nonpayable"},{"type":"event","name":"Approval","inputs":[{"name":"owner","type":"address","indexed":true,"internalType":"address"},{"name":"approved","type":"address","indexed":true,"internalType":"address"},{"name":"tokenId","type":"uint256","indexed":true,"internalType":"uint256"}],"anonymous":false},{"type":"event","name":"ApprovalForAll","inputs":[{"name":"owner","type":"address","indexed":true,"internalType":"address"},{"name":"operator","type":"address","indexed":true,"internalType":"address"},{"name":"approved","type":"bool","indexed":false,"internalType":"bool"}],"anonymous":false},{"type":"event","name":"OwnershipTransferred","inputs":[{"name":"previousOwner","type":"address","indexed":true,"internalType":"address"},{"name":"newOwner","type":"address","indexed":true,"internalType":"address"}],"anonymous":false},{"type":"event","name":"Transfer","inputs":[{"name":"from","type":"address","indexed":true,"internalType":"address"},{"name":"to","type":"address","indexed":true,"internalType":"address"},{"name":"tokenId","type":"uint256","indexed":true,"internalType":"uint256"}],"anonymous":false},{"type":"error","name":"ERC721EnumerableForbiddenBatchMint","inputs":[]},{"type":"error","name":"ERC721IncorrectOwner","inputs":[{"name":"sender","type":"address","internalType":"address"},{"name":"tokenId","type":"uint256","internalType":"uint256"},{"name":"owner","type":"address","internalType":"address"}]},{"type":"error","name":"ERC721InsufficientApproval","inputs":[{"name":"operator","type":"address","internalType":"address"},{"name":"tokenId","type":"uint256","internalType":"uint256"}]},{"type":"error","name":"ERC721InvalidApprover","inputs":[{"name":"approver","type":"address","internalType":"address"}]},{"type":"error","name":"ERC721InvalidOperator","inputs":[{"name":"operator","type":"address","internalType":"address"}]},{"type":"error","name":"ERC721InvalidOwner","inputs":[{"name":"owner","type":"address","internalType":"address"}]},{"type":"error","name":"ERC721InvalidReceiver","inputs":[{"name":"receiver","type":"address","internalType":"address"}]},{"type":"error","name":"ERC721InvalidSender","inputs":[{"name":"sender","type":"address","internalType":"address"}]},{"type":"error","name":"ERC721NonexistentToken","inputs":[{"name":"tokenId","type":"uint256","internalType":"uint256"}]},{"type":"error","name":"ERC721OutOfBoundsIndex","inputs":[{"name":"owner","type":"address","internalType":"address"},{"name":"index","type":"uint256","internalType":"uint256"}]},{"type":"error","name":"InvalidTokenId","inputs":[{"name":"tokenId","type":"uint256","internalType":"uint256"}]},{"type":"error","name":"OwnableInvalidOwner","inputs":[{"name":"owner","type":"address","internalType":"address"}]},{"type":"error","name":"OwnableUnauthorizedAccount","inputs":[{"name":"account","type":"address","internalType":"address"}]}],"bytecode":{"object":"0x608060405234801561000f575f80fd5b5060405161229238038061229283398101604081905261002e9161011f565b806040518060400160405280600f81526020016e4469616d6f6e6447656d53746f6e6560881b8152506040518060400160405280600381526020016247454d60e81b815250815f908161008191906101e4565b50600161008e82826101e4565b5050506001600160a01b0381166100be57604051631e4fbdf760e01b81525f600482015260240160405180910390fd5b6100c7816100ce565b50506102a3565b600a80546001600160a01b038381166001600160a01b0319831681179093556040519116919082907f8be0079c531659141344cd1fd0a4f28419497f9722a3daafe3b4186f6b6457e0905f90a35050565b5f6020828403121561012f575f80fd5b81516001600160a01b0381168114610145575f80fd5b9392505050565b634e487b7160e01b5f52604160045260245ffd5b600181811c9082168061017457607f821691505b60208210810361019257634e487b7160e01b5f52602260045260245ffd5b50919050565b601f8211156101df57805f5260205f20601f840160051c810160208510156101bd5750805b601f840160051c820191505b818110156101dc575f81556001016101c9565b50505b505050565b81516001600160401b038111156101fd576101fd61014c565b6102118161020b8454610160565b84610198565b602080601f831160018114610244575f841561022d5750858301515b5f19600386901b1c1916600185901b17855561029b565b5f85815260208120601f198616915b8281101561027257888601518255948401946001909101908401610253565b508582101561028f57878501515f19600388901b60f8161c191681555b505060018460011b0185555b505050505050565b611fe2806102b05f395ff3fe608060405234801561000f575f80fd5b5060043610610132575f3560e01c80636352211e116100b457806395d89b411161007957806395d89b4114610260578063a22cb46514610268578063b88d4fde1461027b578063c87b56dd1461028e578063e985e9c5146102a1578063f2fde38b146102b4575f80fd5b80636352211e1461021957806370a082311461022c578063715018a61461023f5780638ada066e146102475780638da5cb5b1461024f575f80fd5b806318160ddd116100fa57806318160ddd146101bb57806323b872dd146101cd5780632f745c59146101e057806342842e0e146101f35780634f6ccce714610206575f80fd5b806301ffc9a71461013657806306fdde031461015e578063081812fc14610173578063095ea7b31461019e5780631249c58b146101b3575b5f80fd5b610149610144366004611a31565b6102c7565b60405190151581526020015b60405180910390f35b6101666102d7565b6040516101559190611aa0565b610186610181366004611ab2565b610366565b6040516001600160a01b039091168152602001610155565b6101b16101ac366004611ae4565b61038d565b005b6101b161039c565b6008545b604051908152602001610155565b6101b16101db366004611b0c565b6103c6565b6101bf6101ee366004611ae4565b610454565b6101b1610201366004611b0c565b6104b7565b6101bf610214366004611ab2565b6104d6565b610186610227366004611ab2565b61052b565b6101bf61023a366004611b45565b610535565b6101b161057a565b600b546101bf565b600a546001600160a01b0316610186565b61016661058b565b6101b1610276366004611b5e565b61059a565b6101b1610289366004611bab565b6105a5565b61016661029c366004611ab2565b6105bc565b6101496102af366004611c80565b610e4a565b6101b16102c2366004611b45565b610e77565b5f6102d182610eb4565b92915050565b60605f80546102e590611cb1565b80601f016020809104026020016040519081016040528092919081815260200182805461031190611cb1565b801561035c5780601f106103335761010080835404028352916020019161035c565b820191905f5260205f20905b81548152906001019060200180831161033f57829003601f168201915b5050505050905090565b5f61037082610ed8565b505f828152600460205260409020546001600160a01b03166102d1565b610398828233610f10565b5050565b6103a4610f1d565b600b8054905f6103b383611cfd565b91905055506103c433600b54610f4a565b565b6001600160a01b0382166103f457604051633250574960e11b81525f60048201526024015b60405180910390fd5b5f610400838333610f63565b9050836001600160a01b0316816001600160a01b03161461044e576040516364283d7b60e01b81526001600160a01b03808616600483015260248201849052821660448201526064016103eb565b50505050565b5f61045e83610535565b821061048f5760405163295f44f760e21b81526001600160a01b0384166004820152602481018390526044016103eb565b506001600160a01b03919091165f908152600660209081526040808320938352929052205490565b6104d183838360405180602001604052805f8152506105a5565b505050565b5f6104e060085490565b82106105085760405163295f44f760e21b81525f6004820152602481018390526044016103eb565b6008828154811061051b5761051b611d15565b905f5260205f2001549050919050565b5f6102d182610ed8565b5f6001600160a01b03821661055f576040516322718ad960e21b81525f60048201526024016103eb565b506001600160a01b03165f9081526003602052604090205490565b610582610f1d565b6103c45f610f77565b6060600180546102e590611cb1565b610398338383610fc8565b6105b08484846103c6565b61044e84848484611066565b6060600b548211156105e45760405163ed15e6cf60e01b8152600481018390526024016103eb565b5f610de56105f18461118c565b610dd4604051602001610dc0907f3c73766720786d6c6e733d22687474703a2f2f7777772e77332e6f72672f323081527f30302f7376672220786d6c6e733a786c696e6b3d22687474703a2f2f7777772e60208201527f77332e6f72672f313939392f786c696e6b222077696474683d2235303022207a60408201527f6f6f6d416e6450616e3d226d61676e696679222076696577426f783d2230203060608201527f20333735203337342e39393939393122206865696768743d223530302220707260808201527f657365727665417370656374526174696f3d22784d6964594d6964206d65657460a08201527f222076657273696f6e3d22312e30223e3c646566733e3c636c6970506174682060c08201527f69643d2239396534623665313034223e3c7061746820643d224d2037372e323160e08201527f303933382039332e343533313235204c203239372e3731303933382039332e346101008201527f3533313235204c203239372e373130393338203238312e373033313235204c206101208201527f37372e323130393338203238312e373033313235205a204d2037372e323130396101408201527f33382039332e343533313235202220636c69702d72756c653d226e6f6e7a65726101608201527f6f222f3e3c2f636c6970506174683e3c2f646566733e3c7265637420783d222d6101808201527f33372e35222077696474683d22343530222066696c6c3d2223666666666666226101a08201527f20793d222d33372e34393939393922206865696768743d223434392e393939396101c082018190527f3839222066696c6c2d6f7061636974793d2231222f3e3c7265637420783d222d6101e08301527f33372e35222077696474683d22343530222066696c6c3d2223376564613663226102008301526102208201527f3839222066696c6c2d6f7061636974793d2231222f3e3c706174682066696c6c6102408201527f3d22236666666666662220643d224d203239362e313231303934203135312e316102608201527f3935333132204c203138372e343630393338203237392e363336373139204c206102808201527f37382e373936383735203135312e313935333132204c203132372e32363137316102a08201527f392039342e383535343639204c203234372e36353632352039342e38353534366102c08201527f39205a204d203239362e313231303934203135312e31393533313220222066696102e08201527f6c6c2d6f7061636974793d2231222066696c6c2d72756c653d226e6f6e7a65726103008201527f6f222f3e3c6720636c69702d706174683d2275726c28233939653462366531306103208201527f3429223e3c706174682066696c6c3d22233030303030302220643d224d2032346103408201527f382e3138333539342039332e363231303934204c203132362e373334333735206103608201527f39332e363231303934204c2037372e323130393338203135312e3139353331326103808201527f204c203138372e343630393338203238312e353335313536204c203239372e306103a08201527f3436383735203135312e393932313838204c203239372e3731303933382031356103c08201527f312e313935333132205a204d203234382e3834373635362039382e313235204c6103e08201527f203239332e343333353934203134392e393630393338204c203234382e3834376104008201527f363536203134392e393630393338205a204d203234362e3432313837352039366104208201527f2e303530373831204c203234362e343231383735203134382e343134303632206104408201527f4c203138392e3833393834342039362e303530373831205a204d203234342e356104608201527f3233343338203135302e303033393036204c203133302e3339343533312031356104808201527f302e303033393036204c203138372e3436303933382039372e313935333132206104a08201527f5a204d203132382e3439363039342039362e303530373831204c203138352e306104c08201527f37383132352039362e303530373831204c203132382e343936303934203134386104e08201527f2e343134303632205a204d203132362e3037303331322039382e313235204c206105008201527f3132362e303730333132203134392e393630393338204c2038312e34383832386105208201527f31203134392e393630393338205a204d2038312e343431343036203135322e346105408201527f3333353934204c203132362e353131373139203135322e343333353934204c206105608201527f3138322e343736353632203237312e383230333132205a204d203132392e32306105808201527f33313235203135322e343333353934204c203234352e373134383434203135326105a08201527f2e343333353934204c203138372e343630393338203237362e373635363235206105c08201527f5a204d203139322e343838323831203237312e383230333132204c203234382e6105e08201527f343439323139203135322e343333353934204c203239332e35313935333120316106008201527f35322e343333353934205a204d203139322e343838323831203237312e3832306106208201527f33313220222066696c6c2d6f7061636974793d2231222066696c6c2d72756c65610640820152751e913737b73d32b93791179f1e17b39f1e17b9bb339f60511b6106608201526106760190565b60405160208183030381529060405261121c565b604051602001610dc0929190611d29565b9050610e2160408051808201909152601d81527f646174613a6170706c69636174696f6e2f6a736f6e3b6261736536342c000000602082015290565b81604051602001610e33929190611ea0565b604051602081830303815290604052915050919050565b6001600160a01b039182165f90815260056020908152604080832093909416825291909152205460ff1690565b610e7f610f1d565b6001600160a01b038116610ea857604051631e4fbdf760e01b81525f60048201526024016103eb565b610eb181610f77565b50565b5f6001600160e01b0319821663780e9d6360e01b14806102d157506102d182611377565b5f818152600260205260408120546001600160a01b0316806102d157604051637e27328960e01b8152600481018490526024016103eb565b6104d183838360016113c6565b600a546001600160a01b031633146103c45760405163118cdaa760e01b81523360048201526024016103eb565b610398828260405180602001604052805f8152506114ca565b5f610f6f8484846114e0565b949350505050565b600a80546001600160a01b038381166001600160a01b0319831681179093556040519116919082907f8be0079c531659141344cd1fd0a4f28419497f9722a3daafe3b4186f6b6457e0905f90a35050565b6001600160a01b038216610ffa57604051630b61174360e31b81526001600160a01b03831660048201526024016103eb565b6001600160a01b038381165f81815260056020908152604080832094871680845294825291829020805460ff191686151590811790915591519182527f17307eab39ab6107e8899845ad3d59bd9653f200f220920489ca2b5937696c31910160405180910390a3505050565b6001600160a01b0383163b1561044e57604051630a85bd0160e11b81526001600160a01b0384169063150b7a02906110a8903390889087908790600401611ece565b6020604051808303815f875af19250505080156110e2575060408051601f3d908101601f191682019092526110df91810190611f0a565b60015b611149573d80801561110f576040519150601f19603f3d011682016040523d82523d5f602084013e611114565b606091505b5080515f0361114157604051633250574960e11b81526001600160a01b03851660048201526024016103eb565b805181602001fd5b6001600160e01b03198116630a85bd0160e11b1461118557604051633250574960e11b81526001600160a01b03851660048201526024016103eb565b5050505050565b60605f611198836115ab565b60010190505f8167ffffffffffffffff8111156111b7576111b7611b97565b6040519080825280601f01601f1916602001820160405280156111e1576020820181803683370190505b5090508181016020015b5f19016f181899199a1a9b1b9c1cb0b131b232b360811b600a86061a8153600a85049450846111eb57509392505050565b606081515f0361123957505060408051602081019091525f815290565b5f604051806060016040528060408152602001611f966040913990505f6003845160026112669190611f25565b6112709190611f38565b61127b906004611f57565b67ffffffffffffffff81111561129357611293611b97565b6040519080825280601f01601f1916602001820160405280156112bd576020820181803683370190505b509050600182016020820185865187016020810180515f82525b82841015611332576003840193508351603f8160121c168701518653600186019550603f81600c1c168701518653600186019550603f8160061c168701518653600186019550603f81168701518653506001850194506112d7565b905250508551600390066001811461135157600281146113645761136c565b603d6001830353603d600283035361136c565b603d60018303535b509195945050505050565b5f6001600160e01b031982166380ac58cd60e01b14806113a757506001600160e01b03198216635b5e139f60e01b145b806102d157506301ffc9a760e01b6001600160e01b03198316146102d1565b80806113da57506001600160a01b03821615155b1561149b575f6113e984610ed8565b90506001600160a01b038316158015906114155750826001600160a01b0316816001600160a01b031614155b801561142857506114268184610e4a565b155b156114515760405163a9fbf51f60e01b81526001600160a01b03841660048201526024016103eb565b81156114995783856001600160a01b0316826001600160a01b03167f8c5be1e5ebec7d5bd14f71427d1e84f3dd0314c0f7b2291e5b200ac8c7c3b92560405160405180910390a45b505b50505f90815260046020526040902080546001600160a01b0319166001600160a01b0392909216919091179055565b6114d48383611682565b6104d15f848484611066565b5f806114ed8585856116e3565b90506001600160a01b0381166115495761154484600880545f838152600960205260408120829055600182018355919091527ff3f7a9fe364faab93b216da50a3214154f22a0a2b415b23a84c8169e8b636ee30155565b61156c565b846001600160a01b0316816001600160a01b03161461156c5761156c81856117d5565b6001600160a01b0385166115885761158384611862565b610f6f565b846001600160a01b0316816001600160a01b031614610f6f57610f6f8585611909565b5f8072184f03e93ff9f4daa797ed6e38ed64bf6a1f0160401b83106115e95772184f03e93ff9f4daa797ed6e38ed64bf6a1f0160401b830492506040015b6d04ee2d6d415b85acef81000000008310611615576d04ee2d6d415b85acef8100000000830492506020015b662386f26fc10000831061163357662386f26fc10000830492506010015b6305f5e100831061164b576305f5e100830492506008015b612710831061165f57612710830492506004015b60648310611671576064830492506002015b600a83106102d15760010192915050565b6001600160a01b0382166116ab57604051633250574960e11b81525f60048201526024016103eb565b5f6116b783835f610f63565b90506001600160a01b038116156104d1576040516339e3563760e11b81525f60048201526024016103eb565b5f828152600260205260408120546001600160a01b039081169083161561170f5761170f818486611957565b6001600160a01b038116156117495761172a5f855f806113c6565b6001600160a01b0381165f90815260036020526040902080545f190190555b6001600160a01b03851615611777576001600160a01b0385165f908152600360205260409020805460010190555b5f8481526002602052604080822080546001600160a01b0319166001600160a01b0389811691821790925591518793918516917fddf252ad1be2c89b69c2b068fc378daa952ba7f163c4a11628f55a4df523b3ef91a4949350505050565b5f6117df83610535565b5f83815260076020526040902054909150808214611830576001600160a01b0384165f9081526006602090815260408083208584528252808320548484528184208190558352600790915290208190555b505f9182526007602090815260408084208490556001600160a01b039094168352600681528383209183525290812055565b6008545f9061187390600190611f6e565b5f838152600960205260408120546008805493945090928490811061189a5761189a611d15565b905f5260205f200154905080600883815481106118b9576118b9611d15565b5f9182526020808320909101929092558281526009909152604080822084905585825281205560088054806118f0576118f0611f81565b600190038181905f5260205f20015f9055905550505050565b5f600161191584610535565b61191f9190611f6e565b6001600160a01b039093165f908152600660209081526040808320868452825280832085905593825260079052919091209190915550565b6119628383836119bb565b6104d1576001600160a01b03831661199057604051637e27328960e01b8152600481018290526024016103eb565b60405163177e802f60e01b81526001600160a01b0383166004820152602481018290526044016103eb565b5f6001600160a01b03831615801590610f6f5750826001600160a01b0316846001600160a01b031614806119f457506119f48484610e4a565b80610f6f5750505f908152600460205260409020546001600160a01b03908116911614919050565b6001600160e01b031981168114610eb1575f80fd5b5f60208284031215611a41575f80fd5b8135611a4c81611a1c565b9392505050565b5f5b83811015611a6d578181015183820152602001611a55565b50505f910152565b5f8151808452611a8c816020860160208601611a53565b601f01601f19169290920160200192915050565b602081525f611a4c6020830184611a75565b5f60208284031215611ac2575f80fd5b5035919050565b80356001600160a01b0381168114611adf575f80fd5b919050565b5f8060408385031215611af5575f80fd5b611afe83611ac9565b946020939093013593505050565b5f805f60608486031215611b1e575f80fd5b611b2784611ac9565b9250611b3560208501611ac9565b9150604084013590509250925092565b5f60208284031215611b55575f80fd5b611a4c82611ac9565b5f8060408385031215611b6f575f80fd5b611b7883611ac9565b915060208301358015158114611b8c575f80fd5b809150509250929050565b634e487b7160e01b5f52604160045260245ffd5b5f805f8060808587031215611bbe575f80fd5b611bc785611ac9565b9350611bd560208601611ac9565b925060408501359150606085013567ffffffffffffffff80821115611bf8575f80fd5b818701915087601f830112611c0b575f80fd5b813581811115611c1d57611c1d611b97565b604051601f8201601f19908116603f01168101908382118183101715611c4557611c45611b97565b816040528281528a6020848701011115611c5d575f80fd5b826020860160208301375f60208483010152809550505050505092959194509250565b5f8060408385031215611c91575f80fd5b611c9a83611ac9565b9150611ca860208401611ac9565b90509250929050565b600181811c90821680611cc557607f821691505b602082108103611ce357634e487b7160e01b5f52602260045260245ffd5b50919050565b634e487b7160e01b5f52601160045260245ffd5b5f60018201611d0e57611d0e611ce9565b5060010190565b634e487b7160e01b5f52603260045260245ffd5b7f7b226e616d65223a20224469616d6f6e6447656d53746f6e652023000000000081525f8351611d6081601b850160208801611a53565b7f222c20226465736372697074696f6e223a20224469616d6f6e642047656d2053601b918401918201527f746f6e65206f66207468652042616e6469747320647572696e67204b534c2043603b8201527f6173746c65205261696473222c2022696d616765223a2022646174613a696d61605b8201527119d94bd4d591cade1b5b0ed8985cd94d8d0b60721b607b8201528351611e0481608d840160208801611a53565b7f222c202261747472696275746573223a205b7b2274726169745f74797065223a608d92909101918201527f202243617465676f7279222c202276616c7565223a20225072697a65227d2c2060ad8201527f7b2274726169745f74797065223a2022436861696e222c202276616c7565223a60cd8201527020224b616961204b6169726f73227d5d7d60781b60ed82015260fe01949350505050565b5f8351611eb1818460208801611a53565b835190830190611ec5818360208801611a53565b01949350505050565b6001600160a01b03858116825284166020820152604081018390526080606082018190525f90611f0090830184611a75565b9695505050505050565b5f60208284031215611f1a575f80fd5b8151611a4c81611a1c565b808201808211156102d1576102d1611ce9565b5f82611f5257634e487b7160e01b5f52601260045260245ffd5b500490565b80820281158282048414176102d1576102d1611ce9565b818103818111156102d1576102d1611ce9565b634e487b7160e01b5f52603160045260245ffdfe4142434445464748494a4b4c4d4e4f505152535455565758595a6162636465666768696a6b6c6d6e6f707172737475767778797a303132333435363738392b2fa164736f6c6343000819000a","linkReferences":{}},"methodIdentifiers":{"approve(address,uint256)":"095ea7b3","balanceOf(address)":"70a08231","getApproved(uint256)":"081812fc","getCounter()":"8ada066e","isApprovedForAll(address,address)":"e985e9c5","mint()":"1249c58b","name()":"06fdde03","owner()":"8da5cb5b","ownerOf(uint256)":"6352211e","renounceOwnership()":"715018a6","safeTransferFrom(address,address,uint256)":"42842e0e","safeTransferFrom(address,address,uint256,bytes)":"b88d4fde","setApprovalForAll(address,bool)":"a22cb465","supportsInterface(bytes4)":"01ffc9a7","symbol()":"95d89b41","tokenByIndex(uint256)":"4f6ccce7","tokenOfOwnerByIndex(address,uint256)":"2f745c59","tokenURI(uint256)":"c87b56dd","totalSupply()":"18160ddd","transferFrom(address,address,uint256)":"23b872dd","transferOwnership(address)":"f2fde38b"},"id":50}