{"abi":[{"type":"constructor","inputs":[{"name":"initialOwner","type":"address","internalType":"address"}],"stateMutability":"nonpayable"},{"type":"function","name":"DOMAIN_SEPARATOR","inputs":[],"outputs":[{"name":"","type":"bytes32","internalType":"bytes32"}],"stateMutability":"view"},{"type":"function","name":"allowance","inputs":[{"name":"owner","type":"address","internalType":"address"},{"name":"spender","type":"address","internalType":"address"}],"outputs":[{"name":"","type":"uint256","internalType":"uint256"}],"stateMutability":"view"},{"type":"function","name":"approve","inputs":[{"name":"spender","type":"address","internalType":"address"},{"name":"value","type":"uint256","internalType":"uint256"}],"outputs":[{"name":"","type":"bool","internalType":"bool"}],"stateMutability":"nonpayable"},{"type":"function","name":"balanceOf","inputs":[{"name":"account","type":"address","internalType":"address"}],"outputs":[{"name":"","type":"uint256","internalType":"uint256"}],"stateMutability":"view"},{"type":"function","name":"burn","inputs":[{"name":"value","type":"uint256","internalType":"uint256"}],"outputs":[],"stateMutability":"nonpayable"},{"type":"function","name":"burnFrom","inputs":[{"name":"account","type":"address","internalType":"address"},{"name":"value","type":"uint256","internalType":"uint256"}],"outputs":[],"stateMutability":"nonpayable"},{"type":"function","name":"decimals","inputs":[],"outputs":[{"name":"","type":"uint8","internalType":"uint8"}],"stateMutability":"view"},{"type":"function","name":"eip712Domain","inputs":[],"outputs":[{"name":"fields","type":"bytes1","internalType":"bytes1"},{"name":"name","type":"string","internalType":"string"},{"name":"version","type":"string","internalType":"string"},{"name":"chainId","type":"uint256","internalType":"uint256"},{"name":"verifyingContract","type":"address","internalType":"address"},{"name":"salt","type":"bytes32","internalType":"bytes32"},{"name":"extensions","type":"uint256[]","internalType":"uint256[]"}],"stateMutability":"view"},{"type":"function","name":"mint","inputs":[{"name":"to","type":"address","internalType":"address"},{"name":"amount","type":"uint256","internalType":"uint256"}],"outputs":[],"stateMutability":"nonpayable"},{"type":"function","name":"name","inputs":[],"outputs":[{"name":"","type":"string","internalType":"string"}],"stateMutability":"view"},{"type":"function","name":"nonces","inputs":[{"name":"owner","type":"address","internalType":"address"}],"outputs":[{"name":"","type":"uint256","internalType":"uint256"}],"stateMutability":"view"},{"type":"function","name":"owner","inputs":[],"outputs":[{"name":"","type":"address","internalType":"address"}],"stateMutability":"view"},{"type":"function","name":"permit","inputs":[{"name":"owner","type":"address","internalType":"address"},{"name":"spender","type":"address","internalType":"address"},{"name":"value","type":"uint256","internalType":"uint256"},{"name":"deadline","type":"uint256","internalType":"uint256"},{"name":"v","type":"uint8","internalType":"uint8"},{"name":"r","type":"bytes32","internalType":"bytes32"},{"name":"s","type":"bytes32","internalType":"bytes32"}],"outputs":[],"stateMutability":"nonpayable"},{"type":"function","name":"renounceOwnership","inputs":[],"outputs":[],"stateMutability":"nonpayable"},{"type":"function","name":"symbol","inputs":[],"outputs":[{"name":"","type":"string","internalType":"string"}],"stateMutability":"view"},{"type":"function","name":"totalSupply","inputs":[],"outputs":[{"name":"","type":"uint256","internalType":"uint256"}],"stateMutability":"view"},{"type":"function","name":"transfer","inputs":[{"name":"to","type":"address","internalType":"address"},{"name":"value","type":"uint256","internalType":"uint256"}],"outputs":[{"name":"","type":"bool","internalType":"bool"}],"stateMutability":"nonpayable"},{"type":"function","name":"transferFrom","inputs":[{"name":"from","type":"address","internalType":"address"},{"name":"to","type":"address","internalType":"address"},{"name":"value","type":"uint256","internalType":"uint256"}],"outputs":[{"name":"","type":"bool","internalType":"bool"}],"stateMutability":"nonpayable"},{"type":"function","name":"transferOwnership","inputs":[{"name":"newOwner","type":"address","internalType":"address"}],"outputs":[],"stateMutability":"nonpayable"},{"type":"event","name":"Approval","inputs":[{"name":"owner","type":"address","indexed":true,"internalType":"address"},{"name":"spender","type":"address","indexed":true,"internalType":"address"},{"name":"value","type":"uint256","indexed":false,"internalType":"uint256"}],"anonymous":false},{"type":"event","name":"EIP712DomainChanged","inputs":[],"anonymous":false},{"type":"event","name":"OwnershipTransferred","inputs":[{"name":"previousOwner","type":"address","indexed":true,"internalType":"address"},{"name":"newOwner","type":"address","indexed":true,"internalType":"address"}],"anonymous":false},{"type":"event","name":"Transfer","inputs":[{"name":"from","type":"address","indexed":true,"internalType":"address"},{"name":"to","type":"address","indexed":true,"internalType":"address"},{"name":"value","type":"uint256","indexed":false,"internalType":"uint256"}],"anonymous":false},{"type":"error","name":"ECDSAInvalidSignature","inputs":[]},{"type":"error","name":"ECDSAInvalidSignatureLength","inputs":[{"name":"length","type":"uint256","internalType":"uint256"}]},{"type":"error","name":"ECDSAInvalidSignatureS","inputs":[{"name":"s","type":"bytes32","internalType":"bytes32"}]},{"type":"error","name":"ERC20InsufficientAllowance","inputs":[{"name":"spender","type":"address","internalType":"address"},{"name":"allowance","type":"uint256","internalType":"uint256"},{"name":"needed","type":"uint256","internalType":"uint256"}]},{"type":"error","name":"ERC20InsufficientBalance","inputs":[{"name":"sender","type":"address","internalType":"address"},{"name":"balance","type":"uint256","internalType":"uint256"},{"name":"needed","type":"uint256","internalType":"uint256"}]},{"type":"error","name":"ERC20InvalidApprover","inputs":[{"name":"approver","type":"address","internalType":"address"}]},{"type":"error","name":"ERC20InvalidReceiver","inputs":[{"name":"receiver","type":"address","internalType":"address"}]},{"type":"error","name":"ERC20InvalidSender","inputs":[{"name":"sender","type":"address","internalType":"address"}]},{"type":"error","name":"ERC20InvalidSpender","inputs":[{"name":"spender","type":"address","internalType":"address"}]},{"type":"error","name":"ERC2612ExpiredSignature","inputs":[{"name":"deadline","type":"uint256","internalType":"uint256"}]},{"type":"error","name":"ERC2612InvalidSigner","inputs":[{"name":"signer","type":"address","internalType":"address"},{"name":"owner","type":"address","internalType":"address"}]},{"type":"error","name":"InvalidAccountNonce","inputs":[{"name":"account","type":"address","internalType":"address"},{"name":"currentNonce","type":"uint256","internalType":"uint256"}]},{"type":"error","name":"InvalidShortString","inputs":[]},{"type":"error","name":"OwnableInvalidOwner","inputs":[{"name":"owner","type":"address","internalType":"address"}]},{"type":"error","name":"OwnableUnauthorizedAccount","inputs":[{"name":"account","type":"address","internalType":"address"}]},{"type":"error","name":"StringTooLong","inputs":[{"name":"str","type":"string","internalType":"string"}]}],"bytecode":{"object":"0x610160604052348015610010575f80fd5b5060405161157838038061157883398101604081905261002f91610270565b6040518060400160405280600481526020016311dbdb1960e21b81525080604051806040016040528060018152602001603160f81b815250836040518060400160405280600481526020016311dbdb1960e21b8152506040518060400160405280600481526020016311d3d31160e21b81525081600390816100b19190610335565b5060046100be8282610335565b5050506001600160a01b0381166100ef57604051631e4fbdf760e01b81525f60048201526024015b60405180910390fd5b6100f8816101b0565b50610104826006610201565b61012052610113816007610201565b61014052815160208084019190912060e052815190820120610100524660a05261019f60e05161010051604080517f8b73c3c69bb8fe3d512ecc4cf759cc79239f7b179b0ffacaa9a75d522b39400f60208201529081019290925260608201524660808201523060a08201525f9060c00160405160208183030381529060405280519060200120905090565b60805250503060c052506104639050565b600580546001600160a01b038381166001600160a01b0319831681179093556040519116919082907f8be0079c531659141344cd1fd0a4f28419497f9722a3daafe3b4186f6b6457e0905f90a35050565b5f60208351101561021c5761021583610233565b905061022d565b816102278482610335565b5060ff90505b92915050565b5f80829050601f8151111561025d578260405163305a27a960e01b81526004016100e691906103f4565b805161026882610440565b179392505050565b5f60208284031215610280575f80fd5b81516001600160a01b0381168114610296575f80fd5b9392505050565b634e487b7160e01b5f52604160045260245ffd5b600181811c908216806102c557607f821691505b6020821081036102e357634e487b7160e01b5f52602260045260245ffd5b50919050565b601f82111561033057805f5260205f20601f840160051c8101602085101561030e5750805b601f840160051c820191505b8181101561032d575f815560010161031a565b50505b505050565b81516001600160401b0381111561034e5761034e61029d565b6103628161035c84546102b1565b846102e9565b602080601f831160018114610395575f841561037e5750858301515b5f19600386901b1c1916600185901b1785556103ec565b5f85815260208120601f198616915b828110156103c3578886015182559484019460019091019084016103a4565b50858210156103e057878501515f19600388901b60f8161c191681555b505060018460011b0185555b505050505050565b5f602080835283518060208501525f5b8181101561042057858101830151858201604001528201610404565b505f604082860101526040601f19601f8301168501019250505092915050565b805160208083015191908110156102e3575f1960209190910360031b1b16919050565b60805160a05160c05160e0516101005161012051610140516110c46104b45f395f61090c01525f6108df01525f6107a201525f61077a01525f6106d501525f6106ff01525f61072901526110c45ff3fe608060405234801561000f575f80fd5b506004361061011c575f3560e01c8063715018a6116100a957806395d89b411161006e57806395d89b4114610251578063a9059cbb14610259578063d505accf1461026c578063dd62ed3e1461027f578063f2fde38b146102b7575f80fd5b8063715018a6146101ed57806379cc6790146101f55780637ecebe001461020857806384b0196e1461021b5780638da5cb5b14610236575f80fd5b8063313ce567116100ef578063313ce567146101865780633644e5151461019557806340c10f191461019d57806342966c68146101b257806370a08231146101c5575f80fd5b806306fdde0314610120578063095ea7b31461013e57806318160ddd1461016157806323b872dd14610173575b5f80fd5b6101286102ca565b6040516101359190610e52565b60405180910390f35b61015161014c366004610e86565b61035a565b6040519015158152602001610135565b6002545b604051908152602001610135565b610151610181366004610eae565b610373565b60405160128152602001610135565b610165610396565b6101b06101ab366004610e86565b6103a4565b005b6101b06101c0366004610ee7565b6103ba565b6101656101d3366004610efe565b6001600160a01b03165f9081526020819052604090205490565b6101b06103c7565b6101b0610203366004610e86565b6103da565b610165610216366004610efe565b6103ef565b61022361040c565b6040516101359796959493929190610f17565b6005546040516001600160a01b039091168152602001610135565b61012861044e565b610151610267366004610e86565b61045d565b6101b061027a366004610fae565b61046a565b61016561028d36600461101b565b6001600160a01b039182165f90815260016020908152604080832093909416825291909152205490565b6101b06102c5366004610efe565b6105a5565b6060600380546102d99061104c565b80601f01602080910402602001604051908101604052809291908181526020018280546103059061104c565b80156103505780601f1061032757610100808354040283529160200191610350565b820191905f5260205f20905b81548152906001019060200180831161033357829003601f168201915b5050505050905090565b5f336103678185856105df565b60019150505b92915050565b5f336103808582856105f1565b61038b85858561066c565b506001949350505050565b5f61039f6106c9565b905090565b6103ac6107f2565b6103b6828261081f565b5050565b6103c43382610853565b50565b6103cf6107f2565b6103d85f610887565b565b6103e58233836105f1565b6103b68282610853565b6001600160a01b0381165f9081526008602052604081205461036d565b5f6060805f805f606061041d6108d8565b610425610905565b604080515f80825260208201909252600f60f81b9b939a50919850469750309650945092509050565b6060600480546102d99061104c565b5f3361036781858561066c565b834211156104935760405163313c898160e11b8152600481018590526024015b60405180910390fd5b5f7f6e71edae12b1b97f4d1f60370fef10105fa2faae0126114a169c64845d6126c98888886104de8c6001600160a01b03165f90815260086020526040902080546001810190915590565b6040805160208101969096526001600160a01b0394851690860152929091166060840152608083015260a082015260c0810186905260e0016040516020818303038152906040528051906020012090505f61053882610932565b90505f6105478287878761095e565b9050896001600160a01b0316816001600160a01b03161461058e576040516325c0072360e11b81526001600160a01b0380831660048301528b16602482015260440161048a565b6105998a8a8a6105df565b50505050505050505050565b6105ad6107f2565b6001600160a01b0381166105d657604051631e4fbdf760e01b81525f600482015260240161048a565b6103c481610887565b6105ec838383600161098a565b505050565b6001600160a01b038381165f908152600160209081526040808320938616835292905220545f198114610666578181101561065857604051637dc7a0d960e11b81526001600160a01b0384166004820152602481018290526044810183905260640161048a565b61066684848484035f61098a565b50505050565b6001600160a01b03831661069557604051634b637e8f60e11b81525f600482015260240161048a565b6001600160a01b0382166106be5760405163ec442f0560e01b81525f600482015260240161048a565b6105ec838383610a5c565b5f306001600160a01b037f00000000000000000000000000000000000000000000000000000000000000001614801561072157507f000000000000000000000000000000000000000000000000000000000000000046145b1561074b57507f000000000000000000000000000000000000000000000000000000000000000090565b61039f604080517f8b73c3c69bb8fe3d512ecc4cf759cc79239f7b179b0ffacaa9a75d522b39400f60208201527f0000000000000000000000000000000000000000000000000000000000000000918101919091527f000000000000000000000000000000000000000000000000000000000000000060608201524660808201523060a08201525f9060c00160405160208183030381529060405280519060200120905090565b6005546001600160a01b031633146103d85760405163118cdaa760e01b815233600482015260240161048a565b6001600160a01b0382166108485760405163ec442f0560e01b81525f600482015260240161048a565b6103b65f8383610a5c565b6001600160a01b03821661087c57604051634b637e8f60e11b81525f600482015260240161048a565b6103b6825f83610a5c565b600580546001600160a01b038381166001600160a01b0319831681179093556040519116919082907f8be0079c531659141344cd1fd0a4f28419497f9722a3daafe3b4186f6b6457e0905f90a35050565b606061039f7f00000000000000000000000000000000000000000000000000000000000000006006610b82565b606061039f7f00000000000000000000000000000000000000000000000000000000000000006007610b82565b5f61036d61093e6106c9565b8360405161190160f01b8152600281019290925260228201526042902090565b5f805f8061096e88888888610c2b565b92509250925061097e8282610cf3565b50909695505050505050565b6001600160a01b0384166109b35760405163e602df0560e01b81525f600482015260240161048a565b6001600160a01b0383166109dc57604051634a1406b160e11b81525f600482015260240161048a565b6001600160a01b038085165f908152600160209081526040808320938716835292905220829055801561066657826001600160a01b0316846001600160a01b03167f8c5be1e5ebec7d5bd14f71427d1e84f3dd0314c0f7b2291e5b200ac8c7c3b92584604051610a4e91815260200190565b60405180910390a350505050565b6001600160a01b038316610a86578060025f828254610a7b9190611084565b90915550610af69050565b6001600160a01b0383165f9081526020819052604090205481811015610ad85760405163391434e360e21b81526001600160a01b0385166004820152602481018290526044810183905260640161048a565b6001600160a01b0384165f9081526020819052604090209082900390555b6001600160a01b038216610b1257600280548290039055610b30565b6001600160a01b0382165f9081526020819052604090208054820190555b816001600160a01b0316836001600160a01b03167fddf252ad1be2c89b69c2b068fc378daa952ba7f163c4a11628f55a4df523b3ef83604051610b7591815260200190565b60405180910390a3505050565b606060ff8314610b9c57610b9583610dab565b905061036d565b818054610ba89061104c565b80601f0160208091040260200160405190810160405280929190818152602001828054610bd49061104c565b8015610c1f5780601f10610bf657610100808354040283529160200191610c1f565b820191905f5260205f20905b815481529060010190602001808311610c0257829003601f168201915b5050505050905061036d565b5f80807f7fffffffffffffffffffffffffffffff5d576e7357a4501ddfe92f46681b20a0841115610c6457505f91506003905082610ce9565b604080515f808252602082018084528a905260ff891692820192909252606081018790526080810186905260019060a0016020604051602081039080840390855afa158015610cb5573d5f803e3d5ffd5b5050604051601f1901519150506001600160a01b038116610ce057505f925060019150829050610ce9565b92505f91508190505b9450945094915050565b5f826003811115610d0657610d066110a3565b03610d0f575050565b6001826003811115610d2357610d236110a3565b03610d415760405163f645eedf60e01b815260040160405180910390fd5b6002826003811115610d5557610d556110a3565b03610d765760405163fce698f760e01b81526004810182905260240161048a565b6003826003811115610d8a57610d8a6110a3565b036103b6576040516335e2f38360e21b81526004810182905260240161048a565b60605f610db783610de8565b6040805160208082528183019092529192505f91906020820181803683375050509182525060208101929092525090565b5f60ff8216601f81111561036d57604051632cd44ac360e21b815260040160405180910390fd5b5f81518084525f5b81811015610e3357602081850181015186830182015201610e17565b505f602082860101526020601f19601f83011685010191505092915050565b602081525f610e646020830184610e0f565b9392505050565b80356001600160a01b0381168114610e81575f80fd5b919050565b5f8060408385031215610e97575f80fd5b610ea083610e6b565b946020939093013593505050565b5f805f60608486031215610ec0575f80fd5b610ec984610e6b565b9250610ed760208501610e6b565b9150604084013590509250925092565b5f60208284031215610ef7575f80fd5b5035919050565b5f60208284031215610f0e575f80fd5b610e6482610e6b565b60ff60f81b881681525f602060e06020840152610f3760e084018a610e0f565b8381036040850152610f49818a610e0f565b606085018990526001600160a01b038816608086015260a0850187905284810360c0860152855180825260208088019350909101905f5b81811015610f9c57835183529284019291840191600101610f80565b50909c9b505050505050505050505050565b5f805f805f805f60e0888a031215610fc4575f80fd5b610fcd88610e6b565b9650610fdb60208901610e6b565b95506040880135945060608801359350608088013560ff81168114610ffe575f80fd5b9699959850939692959460a0840135945060c09093013592915050565b5f806040838503121561102c575f80fd5b61103583610e6b565b915061104360208401610e6b565b90509250929050565b600181811c9082168061106057607f821691505b60208210810361107e57634e487b7160e01b5f52602260045260245ffd5b50919050565b8082018082111561036d57634e487b7160e01b5f52601160045260245ffd5b634e487b7160e01b5f52602160045260245ffdfea164736f6c6343000819000a","linkReferences":{}},"methodIdentifiers":{"DOMAIN_SEPARATOR()":"3644e515","allowance(address,address)":"dd62ed3e","approve(address,uint256)":"095ea7b3","balanceOf(address)":"70a08231","burn(uint256)":"42966c68","burnFrom(address,uint256)":"79cc6790","decimals()":"313ce567","eip712Domain()":"84b0196e","mint(address,uint256)":"40c10f19","name()":"06fdde03","nonces(address)":"7ecebe00","owner()":"8da5cb5b","permit(address,address,uint256,uint256,uint8,bytes32,bytes32)":"d505accf","renounceOwnership()":"715018a6","symbol()":"95d89b41","totalSupply()":"18160ddd","transfer(address,uint256)":"a9059cbb","transferFrom(address,address,uint256)":"23b872dd","transferOwnership(address)":"f2fde38b"},"id":51}